:02000002B0004C
:1040000000400B0032680B00000006000C000502A7
:084010000401B41400000000DB
:04401800D4620B0063
:10401C0010F8012B11F8013B012A28BF9A42F7D066
:10402C00D01A7047034613F8012B002AFBD1181A3B
:10403C000138704709480A49884208B505D0094A31
:10404C00824202D0121A02F08DF80748074A00216A
:10405C00121A02F095F8014808BD00BFF8E40320DD
:10406C0008670B00F4E50320F4E50320F0E70320D8
:10407C0070B5074E074C01F0E9FEA41BA4080025FF
:10408C00AC4200D170BD56F8043B98470135F7E7B8
:10409C00C0660B00E4660B0000F03AB808B500F0FF
:1040AC005DF8BDE8084001F089BE00F04DBF00F09E
:1040BC004BBF00F051BF00F04FBF0078B0FA80F05A
:1040CC004009704701230370704700001FB501467B
:1040DC00684601F096F90B49684601F0CBF90446A5
:1040EC0038B1094B01221A60684601F03FF904B05F
:1040FC0010BD0649684601F0BDF90028F4D0024B0A
:10410C001C60F1E734E60320D8E60320F4E5032035
:10411C001FB501F081FD0E4C4FF4165101F070FDEE
:10412C00684600F0A1FE0099204600F037FB684677
:10413C0001F01CF9074B2046196800F05EFD064B98
:10414C001968204604B0BDE8104000F056BD00BF11
:10415C0074E6032034E60320F4E50320F0B54F4861
:10416C0085B000F02BFA002800F083804B4800F05B
:10417C00FCFB4B4D4B4B4C4C1F682B68242673435C
:10418C000A22E158684601F062F9009A4348394620
:10419C0000F08FFB684601F0E9F8444B1F682B6870
:1041AC0006FB03430A225968684601F050F9009A4D
:1041BC003A48394600F07DFB684601F0D7F83C4B95
:1041CC001F682B6806FB03430A229968684601F0B6
:1041DC003EF9009A3148394600F06BFB684601F015
:1041EC00C5F8344B1F682B6806FB03430A22D968B9
:1041FC00684601F02CF9009A2848394600F059FB22
:10420C00684601F0B3F82C4B1F682B6806FB034380
:10421C000A221969684601F01AF9009A1F483946B2
:10422C0000F047FB684601F0A1F8244B1F682B688F
:10423C0006FB03430A225969684601F008F9009A03
:10424C001648394600F035FB684601F08FF82B68AC
:10425C0006FB0343986900F0A7FE194A2B68126805
:10426C0003EBC303134404EB8304E3692B6005B035
:10427C00F0BD684600F0F8FD0099084800F08EFA91
:10428C00684601F073F80F4B0448196800F0B5FC50
:10429C000D4B0248196800F0B0FC6AE774E6032085
:1042AC00D4E6032044E60320F8E4032064E603206C
:1042BC0054E6032004E6032024E6032014E603203E
:1042CC00D8E6032034E60320F4E5032007B50021EB
:1042DC00012000F0ADFD002340F25B720093144905
:1042EC00144B154800F08EF81449154801F089F864
:1042FC001449154801F085F81449154801F081F866
:10430C001449154801F07DF81449154801F079F865
:10431C001449154801F075F81449154801F071F865
:10432C001449154803B05DF804EB01F06AB800BFFE
:10433C00E8620B00D9400B0074E60320F7620B0017
:10434C0044E603200A630B0064E603201D630B00A4
:10435C0054E6032030630B0004E6032042630B0099
:10436C0024E6032054630B0014E6032066630B0061
:10437C0034E6032077630B00F4E5032091F85C30FE
:10438C0010B50446016013B1886D00F041FC204665
:10439C0010BD10B5036893F85C20044612B1986DFB
:1043AC0000F03EFC204610BDF8B51F469DF82430A9
:1043BC0004460D4616462BB1012380F85C3058306C
:1043CC0000F01EFC089B23630023636306B1A66404
:1043DC0025B1294604F1380001F027F8069B236526
:1043EC00079BE069A4F84C70FF2BB8BFFF23A4F81F
:1043FC00543008B1FFF75DFEB4F85400FFF757FED8
:10440C00E061F8BD2DE9FF410446002517469846AA
:10441C000E4601F033FB0D49E56104F1380000F064
:10442C00F0FF9DF82830A564CDE90283FF220F230D
:10443C00CDE90032204684F85C503B462A46314692
:10444C00FFF7B2FF204604B0BDE8F081BC660B005C
:10445C0010B50446204601F06DFA0028FAD020462B
:10446C0001F052F8C0B210BD2DE9F0470546884660
:10447C00FFF7EEFFEB691870EB6993F800A04FF0B3
:10448C0001090AF0F00A00274C462846FFF7E0FF26
:10449C002646EB69985500F07F0313FB09F31F4484
:1044AC0001340306A4B2BFB24FEAC919EDD4631E9E
:1044BC00BAF1300F88F800301ED12846FFF7C8FF3C
:1044CC00EB6918552846FFF7C3FFF41C0236B6B249
:1044DC00EB69A4B298550226B6B2BE420ED228465B
:1044EC00FFF7B6FFB5F85430A34284BFEB691855FB
:1044FC000134A4B20136EFE70026EDE7B5F85430ED
:10450C00A3422CBF20460020BDE8F0872DE9F341E3
:10451C0015461E461A4607460023964602A802F088
:10452C007F0CBEF17F0F03F10104034488BF4CF0F4
:10453C00800CBEF17F0F4FEAD212E4B203F804CC28
:10454C001ED8C4F10403C4F10500E954224601A9A4
:10455C00284405EB030801F005FE721C2244414679
:10456C00384600F0BCFF054600F072FB621C786216
:10457C003244A8B2131A5842584102B0BDE8F08137
:10458C002346CAE70233F0B5054698B20023CE5C49
:10459C009CB256B1B5F854C0844503F1010704D957
:1045AC00441C16543B46A0B2F1E799B2411A0A4496
:1045BC00210A02F8021C02F8013CF0BD38B5044691
:1045CC0001F0DAF8002814BF0125002502D120469D
:1045DC0001F00AFA284638BD2DE9F04788B00446A8
:1045EC00DDF840809DF850A0894617461E46FFF71F
:1045FC00E5FF0546002840F0CD80214601A8FFF7D5
:10460C00BDFEA16C002940F08880B4F84C20A16B51
:10461C002B46204601F032F800287AD0012323845F
:10462C009DF85430E269042B5B4B40F08180186894
:10463C0099889B79ADF80C108DF80E300290C2F869
:10464C0005009DF80E30BDF80C10A2F80910D372BD
:10465C000C23B8F1000F00F081809DF848009DF804
:10466C004420400140EAC20040F00600C0B2BAF15A
:10467C00000F01D100F0FD001FB1002E70D140F0F1
:10468C008000E269D054226DE169581C12120A5460
:10469C009A1CE169206D88540333E269494620462F
:1046AC00FFF770FF0346B8F1000F0BD0E2694146EB
:1046BC002046FFF767FFE269139903462046FFF790
:1046CC0061FF034667B1E26939462046FFF75AFF9E
:1046DC0003462EB1E26931462046FFF753FF0346ED
:1046EC00053BE2699BB210212046FFF70FFF00F05B
:1046FC00AFFAC4E909004FF47A76204601F01AF9B2
:10470C0088BB00F0A5FAA36AC01A236D73439842C4
:10471C00F3D9204601F068F935E002A800F00CFD51
:10472C00B4F84C202B4602A9204601F087F873E719
:10473C00D3F80700D3F80B10DB7B0DF1080CACE8B9
:10474C0003008CF8003002AB03CBC2F80500C2F8B2
:10475C0009109CF8003053730E237AE7022086E789
:10476C0040F0C0008DE702A92046FFF77DFE04282B
:10477C00CFD1E369DE78002ECBD100F069FA0125A8
:10478C00A06284F82C6001A8FFF703FE284608B04D
:10479C00BDE8F0870025F9E7C4620B007FB5012363
:1047AC000422CDE904320023CDE90233CDE90033F4
:1047BC001A46FFF711FF07B05DF804FB2DE9F74F20
:1047CC00DDF83C809DF834509DF8389004468B46BB
:1047DC0016461F46FFF7F2FE8246002851D02146AE
:1047EC0001A8FFF7CBFDB4F85420E069002101F0DB
:1047FC00C7FC0523E26959462046FFF7C3FE6B1E32
:10480C00012B15D8218CE369013189B22184090A65
:10481C001954421CE369218C92B20230995480B233
:10482C00B8F1000F04D0238C5A1C2284A8F8003055
:10483C0000210B188F42E2699BB20AD9B4F854C01C
:10484C009C4506D916F801C002F803C0013189B2A3
:10485C00EFE79DF8301000290CBF30213121B9F160
:10486C00000F01D041F00801022D0ED141F00401DE
:10487C00053B9BB22046FFF749FE824601A8FFF795
:10488C0088FD504603B0BDE8F08F012D08BF41F004
:10489C000201EDE71FB5089C0394002402949DF8D7
:1048AC001C4001949DF818400094FFF787FF04B05A
:1048BC0010BD30B587B00446104605910492FFF741
:1048CC00B1FB00250346CDE90155DDE90421009536
:1048DC002046FFF7DFFF07B030BD73B504460E4628
:1048EC00FFF76CFE0546C8B1214601A8FFF746FD4F
:1048FC00E36962221A70E36902225A70E369320A90
:10490C009A70E369DE70E1690422204600F0E7FD4D
:10491C00051E01A818BF0125FFF73BFD284602B074
:10492C0070BD73B504460E46FFF748FE0546C8B188
:10493C00214601A8FFF722FDE36972221A70E36990
:10494C0002225A70E369320A9A70E369DE70E169F7
:10495C000422204600F0C3FD051E01A818BF012546
:10496C00FFF717FD284602B070BD2DE9F04F2DED75
:10497C00028B87B000AF0446FFF720FE8146F8B1EA
:10498C00214607F11400FFF7F9FC00F061F9236DE3
:10499C004FF47A725343A26A821A9A42064603D89B
:1049AC00626A821A934221D294F82C307BB1204651
:1049BC0001F01AF84FF0000907F11400FFF7E9FCB9
:1049CC0048461C37BD46BDEC028BBDE8F08FE26952
:1049DC00C0211170E2695370E1690222204600F097
:1049EC007EFDC4E90966012384F82C30204600F0D2
:1049FC00A1FF0028E0D007F113012046FFF734FD9A
:104A0C0083460028D8D0E369A662197801F0F00239
:104A1C00302A7FD1D4F830A0BAF1000FCCD097F85F
:104A2C0013C06A4608EE102A03EB0C0251789578F5
:104A3C0005EB0125ADB205F108026946D208A1EBE0
:104A4C00C20295460CF10302FA6003EB020E0DEB69
:104A5C0005026846C7F808D07A60D7E901218A4276
:104A6C0006D00A461EF8018B02F8018BBA60F4E7F7
:104A7C000022425593F80080F96808F00608ABEB69
:104A8C000C02033AB8F1020FA2EB0502294425D11E
:104A9C0013F801E01944023A91F801B00CF1050148
:104AAC00294419440BEB0E2BD047E36940221A70B2
:104ABC00E3691FFA8BFB83F80180E3694FEA1B2241
:104ACC009A70E36983F803B0E1690422204600F090
:104ADC0006FD666218EE103A9D466DE7B8F1040FBC
:104AEC0015D113F801E01944023A91F801B00CF118
:104AFC000501294419440BEB0E2BD047E3695022D6
:104B0C001A70E36902221FFA8BFB5A70D5E719441D
:104B1C00D047DFE7502A08D19A78D97801EB0221E7
:104B2C0089B22046FFF7D9FE46E7402A12D1626BC4
:104B3C00002A3FF441AFBBF1040F7FF43DAF11F0FD
:104B4C00060F7FF439AF9978D87800EB012080B24A
:104B5C00904731E7602A08D19A78D97801EB022185
:104B6C0089B22046FFF7DDFE26E7702ADFD0902AB7
:104B7C003FF422AFC02A0AD1D0221A70E369002276
:104B8C005A70E1690222204600F0A9FC14E7D02AF1
:104B9C0004BF002384F82C300EE7F7B504460F460B
:104BAC001646FFF70BFD054610B3214601A8FFF78B
:104BBC00E5FB238C01339BB2EBB12384238CE2699C
:104BCC001B0A5371E369228C9A71E26907233946F7
:104BDC002046FFF7D7FCE3691E54043883B2E26920
:104BEC0082212046FFF792FC054601A8FFF7D1FB76
:104BFC00284603B0F0BD0123DFE70022FFF7CDBF4D
:104C0C0008B5024B1B681B6B019308BD48020300DF
:104C1C0008B5024B1B689B6B019308BD480203004F
:104C2C0008B5024B1B681B6C019308BD48020300BE
:104C3C0008B5024B1B685B6C019308BD480203006E
:104C4C0008B5024B1B685B68019308BD1802030092
:104C5C0008B5024B1B685B69019308BD1802030081
:104C6C0008B5024B1B685B69019308BD6C0203001D
:104C7C0008B5024B1B685B69019308BD6402030015
:104C8C0008B5024B1B681B6A019308BD6402030044
:104C9C0008B5024B1B689B6A019308BD64020300B4
:104CAC0008B5024B1B689B68019308BD68020300A2
:104CBC0008B5024B1B68DB68019308BD6802030052
:104CCC0008B5024B1B689B69019308BD38020300B1
:104CDC0008B5024B1B68DB69019308BD3802030061
:104CEC0008B5024B1B681B6A019308BD3802030010
:104CFC0008B5024B1B689B6A019308BD3802030080
:104D0C0008B5024B1B681B6B019308BD38020300EE
:104D1C0008B5024B1B689B6B019308BD380203005E
:104D2C0008B5024B1B68DB68019308BD3C0203000D
:104D3C0008B5024B1B681B69019308BD3C020300BC
:104D4C0008B5024B1B685B69019308BD3C0203006C
:104D5C0008B5024B1B689B69019308BD3C0203001C
:104D6C0008B5024B1B68DB69019308BD3C020300CC
:104D7C0008B5024B1B689B6A019308BD3C020300FB
:104D8C0008B5024B1B681B6C019308BD3C02030069
:104D9C0008B5024B1B681B68019308BD4C0203004D
:104DAC0008B5024B1B685B68019308BD4C020300FD
:104DBC0008B5024B1B681B69019308BD4C0203002C
:104DCC0008B5024B1B685B69019308BD4C020300DC
:104DDC0008B5024B1B689B69019308BD4C0203008C
:104DEC0008B5024B1B68DB69019308BD4C0203003C
:104DFC0008B5024B1B681B6A019308BD4C020300EB
:104E0C0008B5024B1B681B6D019308BD60020300C3
:104E1C0008B5024B1B685B68019308BD20020300B8
:104E2C0008B5024B1B685B69019308BD20020300A7
:104E3C0008B5024B1B68DB6A019308BD2002030016
:104E4C0008B5034B1B68D3F88830019308BD0000EC
:104E5C002002030008B5034B1B68D3F89430019370
:104E6C0008BD00002002030008B5024B1B68DB697B
:104E7C00019308BD4402030008B5024B1B68DB6BB1
:104E8C00019308BD4402030008B5024B1B685B6824
:104E9C00019308BD4002030008B5024B1B689B68D8
:104EAC00019308BD4002030008B5024B1B68DB6888
:104EBC00019308BD4002030008B5024B1B681B6937
:104ECC00019308BD4002030008B5024B1B685B69E7
:104EDC00019308BD4002030008B5024B1B689B6997
:104EEC00019308BD4002030008B5024B1B68DB6947
:104EFC00019308BD4002030008B5024B1B681B6AF6
:104F0C00019308BD4002030008B5024B1B681B6BE4
:104F1C00019308BD4002030008B5024B1B685B6B94
:104F2C00019308BD4002030008B5024B1B681B6CC3
:104F3C00019308BD4002030008B5024B1B685B6C73
:104F4C00019308BD4002030008B5024B1B681B68A7
:104F5C00019308BD1C02030008B5024B1B685B687B
:104F6C00019308BD1C02030008B5024B1B689B682B
:104F7C00019308BD1C02030008B5024B1B68DB6BD8
:104F8C00019308BD1C02030008B5024B1B681B6C87
:104F9C00019308BD1C02030008B5024B1B685B6C37
:104FAC00019308BD1C0203000021FFF739BF00006C
:104FBC00024800230360FFF73BBE00BFDCE6032082
:104FCC00002240681146FFF797BF00224068114647
:104FDC00FFF7A2BF40680022FFF796BF406800228F
:104FEC0081F00101FFF780BF002340681A46194683
:104FFC00FFF772BF002340681A461946FFF764BFDB
:10500C00002240681146FFF757BF00224068114646
:10501C00FFF742BF406800220221FFF745BF002383
:10502C0040681A46FFF730BF024B03225A60024A0F
:10503C001A607047E0E6032098630B00704710B5C8
:10504C0018210446FFF737F8204610BDF0B5037D54
:10505C00062B8DB00E4600F104074FF0000412D061
:10506C0000F1080515F8011D0A22304600F059F927
:10507C00AF42044419D0002CF4D02E21304600F05D
:10508C004DF90444EEE72F236A4639460A208DF881
:10509C000040FFF7EDFD6846FEF7C4FF336802469B
:1050AC00DB68694630469847044620460DB0F0BD93
:1050BC0010B5054B0446112240F8043B002101F0C9
:1050CC005FF8204610BD00BFD4630B000346074AAF
:1050DC0010B543F8042B01F1100251F8044B43F8BE
:1050EC00044B9142F9D10A781A7010BDD4630B00AD
:1050FC00037D042B04D14068003818BF0120704791
:10510C00062B07D143683BB983682BB9C3681BB91D
:10511C000069F1E7002070470120704710B59DF839
:10512C00084044EA032343EA024242EA01610423B1
:10513C004160037510BD000007B5064B0360CB78CA
:10514C0000938B784A780978FFF7E8FF03B05DF895
:10515C0004FB00BFD4630B00014B024A1A6070477A
:10516C00E8E60320E0630B00002340681A46FFF7D3
:10517C008BBE406800220221FFF796BE00224068D9
:10518C001146FFF789BE002240681146FFF794BE16
:10519C00002340681A461946FFF796BE0023406864
:1051AC001A461946FFF798BE40680021FFF7BCBEAF
:1051BC0040680021FFF7C0BE4068002281F0010169
:1051CC00FFF792BE40680022FFF79EBE00224068A7
:1051DC001146FFF7A1BE002240681146FFF78CBEB6
:1051EC002DE9F04395B014460D460746FFF760FFD6
:1051FC0000211C220DA8009100F0C2FF40230C934B
:10520C0020466B460CAA0021FFF752FD04460028ED
:10521C004BD1024601216868FFF74EFE0221804601
:10522C0022466868FFF748FE009E81462146002E04
:10523C003BD0002939D17368022B03D00A2B11D033
:10524C00F669F4E7B8F1000FFAD0716906A80431D9
:10525C0007ADFFF771FF0FCD3C1D0FC42B682370FA
:10526C004146EDE7B9F1000FEAD07469102201A8AC
:10527C0000F086FF06238DF8143001AD04F108030D
:10528C001834186859682A4603C20833A3421546D5
:10529C00F7D101A906A807ADFFF718FF0FCD3C1DEC
:1052AC000FC42B6823704946CAE70098FFF7F8FC37
:1052BC00384615B0BDE8F083024B034A1A60002251
:1052CC005A607047ECE60320EC630B00F8B5064619
:1052DC000D468F180024BD420CD0336815F8011B05
:1052EC009B6830469847031E01DB1C44F3E7002CF7
:1052FC0008BF1C462046F8BD13B50446084659B1F4
:10530C000191FEF78FFE23680199DB680246204667
:10531C0002B0BDE81040184702B010BD03689B688E
:10532C00184730B58BB00023012A8DF8243098BF74
:10533C000A2209AC0D46B1FBF2F101FB125303F04A
:10534C00FF03092B94BF30333733DBB2AA4204F886
:10535C00013DEFD92146FFF7CFFF0BB030BD000068
:10536C00014B00229A607047F4E6032010B5044606
:10537C000068FFF7F1FD204610BD10B5044600682B
:10538C0008B1FFF7E9FD0023C4E90133236010BD28
:10539C0038B504460D4600680131FFF7E5FD10B144
:1053AC00C4E90005012038BD10B50368044623B1DB
:1053BC0043688B4201D3012010BD2046FFF7E8FF64
:1053CC000028F9D0A368002BF5D122681370F2E7FE
:1053DC0037B50D46114601920446FFF7E5FF019AD9
:1053EC0028B92046FFF7C9FF204603B030BDA260A4
:1053FC002946206800F0B6FE2268A3680021D1542B
:10540C00F2E7002313B5C0E900330446836003734D
:10541C0041B108460191FEF705FE0199024620466E
:10542C00FFF7D6FF204602B010BD13B5044659B1A4
:10543C0008460191FEF7F6FD019902462046FFF75A
:10544C00C7FF204602B010BDFFF797FFF9E710B574
:10545C0004468AB00023C4E90033A36023730846D2
:10546C0001A900F073FC01A92046FFF7DEFF2046DE
:10547C000AB010BD02680B46096862B141B9806878
:10548C0060B110787047986840B10978484270470D
:10549C001046FEF7BDBD0029F5D108467047000047
:1054AC00054B02221A60054B054A9A600020C3E99D
:1054BC000000FFF7ADBC00BF10E7032004E703209A
:1054CC000000FFFF13B503688DF80710DC6B012299
:1054DC004FF0FF330DF10701A04702B010BD10B41F
:1054EC000368DC6B4FF0FF33A4465DF8044B604758
:1054FC0013B5134602688DF80710D46B0DF1070134
:10550C000122A04702B010BD10B54369B3F8862044
:10551C00B3F884309A42044608D06369B3F8842007
:10552C00511CA3F884101344187910BD03681B692F
:10553C0098470028F1D14FF0FF30F6E770474369E8
:10554C001868C043C00F704770470000064B994263
:10555C0010B500F10C0405D0084600F0EBFC002857
:10556C0008BF0024204610BD88630B0010B5AC2189
:10557C000446FEF7A0FD204610BDAC21FEF79BBDF6
:10558C002DE9F0414FF0000886B01C46C0F80480AD
:10559C0005460E4617464146102202A800F0F0FDC3
:1055AC00631C09D04FF47A73B4FBF3F203FB12447F
:1055BC00CDE902285C4304946869102300930068C9
:1055CC0002AB41F2050240F6FF71FFF779FB0028B0
:1055DC0007DAFFF7D1FC03686B60002006B0BDE86A
:1055EC00F0816869002300683A463146FFF788FB72
:1055FC00031EEEDB1846F1E738B584690A4B0360ED
:10560C0005467CB16368013B63605BB92368204647
:10561C009B689847A368013BA3601BB9236820468D
:10562C00DB689847284638BD5C640B0010B504460F
:10563C00FFF7E2FF20461C21FEF73DFD204610BD82
:10564C0030B587B0044601AD6846FFF775FD0FCD48
:10565C0004340FC42B68237007B030BD70B54D698E
:10566C00054B04468C3544F8043B06460FCD0FC45D
:10567C002B682370304670BDD4630B002DE9F043CA
:10568C009846036893B00D460024DB6A064617461D
:10569C00984728466B46224621460094FFF708FBA4
:1056AC000546002863D1009B002B4BD05B69002B77
:1056BC0048D006A8FFF7FCFC009B5C696378022BC2
:1056CC0004D1211D06A8FFF7BBFF26E00A2B24D12D
:1056DC001122294601A800F053FDA368002B38D0F5
:1056EC0004F108030DF1040C18341868596862466B
:1056FC0003C20833A3429446F7D1062301A90CA890
:10570C008DF81430FFF7E2FC0DF1340CBCE80F00FF
:10571C0007AC0FC4DCF80030237006A8FFF7E8FCD8
:10572C0080B1336807ADD3F82090124B0C930FCD9A
:10573C000DAC0FC42B6823703A4643460CA9304677
:10574C00C84705460098FFF7ABFA284613B0BDE8EA
:10575C00F083E368002BC3D14FF6FF70D4F81090A0
:10576C00FFF78EFA8145BBD104F11401AAE7254657
:10577C00E8E700BFD4630B0038B543691A68002A08
:10578C00054610DAB3F88620B3F884309A420AD171
:10579C0003681B699847044628B92B682846DB6ABE
:1057AC009847204638BD0120FCE710B54369B3F893
:1057BC008620B3F884309A42044605D06369B3F866
:1057CC0084201344187910BD03681B69984700287E
:1057DC00F4D14FF0FF30F6E7F8B543691746B3F84C
:1057EC008620B3F884309A4205460E4616D0696975
:1057FC00B1F88430B1F88640E41ABC4228BF3C466C
:10580C00043322461944304600F0ACFC6A69B2F805
:10581C0084302344A2F884302046F8BD03681B6909
:10582C0098470028E3D14FF0FF34F5E74269002395
:10583C00A2F884304269A2F8863070472DE9F04115
:10584C001F4603680C46DB6A8AB005461646984725
:10585C00237DD5F81480042B0CBF02200A200622CD
:10586C000121FFF755FAC8F800006B691B68002B83
:10587C0008DA2B682846DB6A0024984720460AB0D1
:10588C00BDE8F0812846FFF7D1FFB7B1002303A98B
:10589C00F8B20393ADF81030FFF7E2F90028E8D125
:1058AC00686906230093006803AB41F20B0240F6D3
:1058BC00FF71FFF705FA0028DBD11C22002103A899
:1058CC0000F05EFC237D042B1DD14FF40773304692
:1058DC00ADF80C30FFF7DCF9ADF80E006068FFF79F
:1058EC00CFF904906B691C22186803A9FFF7F8F92B
:1058FC000028BED104340FCC6D698C350FC52368DC
:10590C002B700124BAE740F61C233046ADF80C305E
:10591C00FFF7BEF905AEADF80E00231D04F1140718
:10592C0018685968324603C20833BB421646F7D191
:10593C00D8E7000030B54269B2F886308BB0044627
:10594C002BB1B2F884209A4201D1FFF76FFF616945
:10595C000868002818DBB1F886507F2D14D8043164
:10596C000823C5F180022944FFF7C2F9002813DD92
:10597C006369B3F886200AB9A3F884206369B3F885
:10598C0086201044A3F886006369B3F88600B3F848
:10599C008430C01A0BB030BDFFF7EEFA03680B2B46
:1059AC00F2D0FFF7E9FA03680B2BEDD0202300258A
:1059BC00CDE90235FFF7E0FA03680193084B09497A
:1059CC00009302AA2B463220FFF71AFA6369186873
:1059DC00FFF77EF963694FF0FF321A60D4E700BF1E
:1059EC0027640B0020640B0010B54369044618684B
:1059FC00002801DBFFF76CF963694FF0FF321A6086
:105A0C006069112200218C3000F0BAFB2046BDE801
:105A1C001040FFF70BBF10B5002304460160C0F81F
:105A2C0084308830FFF744FB204610BD73B500234B
:105A3C004FF47A72C0E901320E4A0361026043618D
:105A4C000446AC200191FEF730FB051E05F10C0657
:105A5C0008D00123C5E90133074B01992B6030466F
:105A6C00FFF7D9FF2046C4E90565FFF7DFFE02B05A
:105A7C0070BD00BF5C640B0040640B0010B54FF0B0
:105A8C00FF310446FFF7D2FF204610BD10B5044687
:105A9C000068002801DBFFF71BF9204610BD0C3015
:105AAC00FFF7F4BF024B1A68024B1A60704700BF35
:105ABC0088E5032014E7032070474174704708B54C
:105ACC00007CFFF755F920EAE07008BD08B5007CB2
:105ADC00FFF72EF920EAE07008BD08B5007CFFF74F
:105AEC0037F940EAE07008BD08B5007CFFF728F9EB
:105AFC0040EAE07008BD007CFFF732B937B5457C51
:105B0C0004462DB1207C03B0BDE83040FFF708B946
:105B1C00007C0191FFF72CF900280199F2DC284652
:105B2C0003B030BD10B514210446FEF7C4FA20466C
:105B3C0010BD000010B54FF47A73044608461146A8
:105B4C000022C4E90123044B2360012320746374F5
:105B5C00FFF716F9204610BDC4640B004174704762
:105B6C007047704708B50021007CFFF731F940EA17
:105B7C00E07008BD08B50121007CFFF729F940EA67
:105B8C00E07008BD08B5007CFFF71AF920EAE07058
:105B9C0008BD08B5007CFFF70BF920EAE07008BDE2
:105BAC0013B50446007C0191FFF70AF9002801990E
:105BBC0001DC607C20B1207CFFF712F920EAE07058
:105BCC0002B010BD007CFFF713B910B514210446C8
:105BDC00FEF771FA204610BD10B54FF47A730446E7
:105BEC0008460021C4E90113044B236001232074EF
:105BFC0063741146FFF7CCF8204610BDF4640B001B
:105C0C00007C0022FFF7CCB810B51422044600210A
:105C1C0000F0B6FA204610BD10B50F4C88B003A8A2
:105C2C00FFF7F2FF2178BFF35B8F11F001010FD169
:105C3C0020460191FEF741FA019948B103AA0748A1
:105C4C00FFF7CAFF2046FEF73DFA054800F084FA3C
:105C5C00024808B010BD00BF18E703201CE7032062
:105C6C006D5B0B00002240681146FFF725B900223E
:105C7C0040681146FFF740B9002240681146FFF713
:105C8C004BB940680022FFF73FB94068002281F011
:105C9C000101FFF729B9002340681A461946FFF79E
:105CAC001BB9002340681A461946FFF70DB90022AC
:105CBC0040681146FFF7F0B8406800220221FFF758
:105CCC00F3B8002340681A46FFF7DEB8024B0422F3
:105CDC005A60024A1A60704730E7032024650B00B3
:105CEC0010B50446FEF79EF901382318204683426E
:105CFC0006D90278197800F8011B03F80129F6E798
:105D0C0010BD70B50C46911E22291DD8254630B900
:105D1C00234430229D4210D205F8012BFAE7B0FB48
:105D2C00F2F602FB1600C1B2092894BF303157318C
:105D3C00C9B205F8011B3046E9E7002320462B7059
:105D4C00FFF7CEFF204670BD0020FCE738B5031EE0
:105D5C000C4615460EDAB3F1004F4FF02D0214BF6E
:105D6C005842184601230A702A461944FFF7C9FF06
:105D7C00204638BD0123F9E7014B1860704700BF7E
:105D8C008CE5032008B50B4B43B1FFF745FF0368C7
:105D9C001B699847002801DDAFF30080064B43B127
:105DAC0000F0A2F803681B699847002801DDAFF3E7
:105DBC00008008BD000000000000000008B5FFF7DF
:105DCC00E1FFFEF745FF014B186008BD40E70320DB
:105DDC000548064A064908B5121A00F0C3F9054BE6
:105DEC00054A1A6008BD00BF00F4032004F4032028
:105DFC0004680B0000F403201E1C279A07B500232F
:105E0C0000931A466FF07701FFF724F803B05DF8A2
:105E1C0004FB000007B543880A2B08D0502B0BD18C
:105E2C00094B1B684BB103B05DF804EB1847FFF747
:105E3C00E5FF03B05DF804FB002300931A466FF0F6
:105E4C007701FFF707F8F4E73CE7032010B5124899
:105E5C000021FFF7A1F8114B1A68114B9A42114B14
:105E6C000CBF012200221A7001D0FFF7B1FFFEF720
:105E7C00E7FE044600F08CF90B4B13B12046AFF350
:105E8C00008000210848FEF7F7FFBDE810400748E6
:105E9C000021FEF7D5BF00BF855D0B0000F4032089
:105EAC001E1C279A38E7032000000000215E0B001F
:105EBC007047000038B5044614252A46002100F02E
:105ECC005FF925804025074925812846258200F069
:105EDC002FF804496060284600F02AF8E06020465C
:105EEC0038BD00BF58650B0030B50E4D2978BFF397
:105EFC005B8F11F0010487B011D12846FEF7DDF855
:105F0C0068B101A8FFF7D6FF01AA21460648FFF7A2
:105F1C0011FE2846FEF7D6F8044800F01DF9024899
:105F2C0007B030BD44E7032048E70320BD5E0B00FB
:105F3C00FEF7BDB8014900F0F9B800BF74650B005D
:105F4C007FB500241023CDE90234036815469E6901
:105F5C0012686B46CDE90044B0479DF8043003F05D
:105F6C000603062B03BF009B2B600120204604B0C8
:105F7C0070BD0098904214BF0120062070470000AD
:105F8C0010B5034B0360044600F0CDF8204610BD5D
:105F9C00B4650B0010B50446FFF7F2FF204608214C
:105FAC00FEF789F8204610BD2DE9F0411F46DDE9CA
:105FBC000834DDF8188098450646154607D1079930
:105FCC0000F0B4F818B165710020BDE8F0813946D5
:105FDC00304600F0ABF80028F6D00123C4F800805E
:105FEC002571A371F0E738B515461C4600F09EF8F4
:105FFC0020B10823E36006232560237138BD73B5F7
:10600C0005460C4601921E4600F090F850B9032E3E
:10601C0008D82368019A5B692946204602B0BDE87E
:10602C007040184702B070BD10B5034B03600446B6
:10603C00FFF7A6FF204610BD14660B0010B50446F2
:10604C00FFF7F2FF20460C21FEF735F8204610BD75
:10605C00F7B5089F974205460E4614460AD0A86825
:10606C0002680897156A31462246AC4603B0BDE873
:10607C00F04060471946019300F058F8019B002846
:10608C00EDD0062003B0F0BD2DE9F14F0D461946B9
:10609C00DDE90A4BDDE90CA681461746984600F06F
:1060AC0045F890B1002D3460377109DB61198A45D0
:1060BC000CBF06210121B171002001B0BDE8F08FA9
:1060CC000235F9D10123B371F6E7544506D159468F
:1060DC00484600F02BF808B17771EDE7D9F80800C5
:1060EC000368CDE90CA6CDE90A4BDC693A46434678
:1060FC002946A44601B0BDE8F04F60472DE9F041B8
:10610C0007460C4615461E46FFF76DFF48B9B868A2
:10611C0003689F692A4633462146BC46BDE8F041D8
:10612C006047BDE8F081704700207047814208B598
:10613C000ED0406803782A2B0CD049680B782A2B98
:10614C0008BF0131FDF764FFB0FA80F0400908BDCB
:10615C000120FCE70020FAE7002301461A46184606
:10616C0000F044B80A44914200F1FF3300D170476B
:10617C0010B511F8014B03F8014F9142F9D110BD44
:10618C0002440346934200D1704703F8011BF9E720
:10619C0038B5104B1D68AB6B0446B3B91820FEF72D
:1061AC00D3FE0246A86320B90B4B0C484221FEF7E4
:1061BC00EBFE0B490B4BC0E900130B4B83600B231D
:1061CC00838100210120C2E90401AB6B00221C6118
:1061DC005A6138BD8CE503204D660B0064660B00DC
:1061EC000E33CDAB34126DE6ECDE05002DE9F84331
:1061FC00DFF8B8800646D8F800001F460D469146D9
:10620C0000F056F8254B1C6834B9254C1C60254B06
:10621C0013B11B68C4F8883063681F2B07DDD8F8EE
:10622C00000000F047F84FF0FF30BDE8F8834EB3A4
:10623C00D4F8880088B91C4B23B9D8F8000000F0BA
:10624C0038F8F0E74FF48470FEF77EFE0028F4D0A7
:10625C000023C0E94033C4F88800636840F82390F9
:10626C0001229A4000EB8301D0F800311343C0F8AF
:10627C000031022EC1F8807002BFD0F804311343F4
:10628C00C0F804316368D8F800005A1C023362600D
:10629C0044F8235000F00EF80020C6E7E8E703208E
:1062AC005CE7032000000000554F0B00F0E50320D5
:1062BC00704770477047000000044D51545404005F
:1062CC00064D51497364700341400B007D400B0037
:1062DC00A5400B00A9400B00000000006C61622E71
:1062EC0074686577636C2E636F6D0052656D792FE2
:1062FC004C616231372F4E6F7274682F6700526594
:10630C006D792F4C616231372F4E6F7274682F7913
:10631C000052656D792F4C616231372F4E6F72745C
:10632C00682F720052656D792F4C616231372F45A1
:10633C006173742F670052656D792F4C6162313730
:10634C002F456173742F790052656D792F4C616202
:10635C0031372F456173742F720052656D792F4C54
:10636C00616231372F4E6F7274680052656D792FF0
:10637C004C616231372F45617374000000000000DE
:10638C000000000000000000000000002B500B007B
:10639C0021500B0017500B000D500B0001500B003F
:1063AC00F54F0B00B5510B00BD510B00E94F0B0025
:1063BC00E14F0B00D74F0B00CD4F0B00ED510B00F5
:1063CC00000000000000000059500B0049500B0069
:1063DC004B500B00617070000000000000000000CA
:1063EC0075510B007F510B0089510B0093510B0021
:1063FC009D510B00A9510B00B5510B00BD510B0069
:10640C00C5510B00D1510B00D9510B00E3510B00BE
:10641C00ED510B00776972696E67007265637620C7
:10642C006572726F72203D20256400000000000030
:10643C000000000055550B0079550B00AB5A0B00B2
:10644C0087550B0059550B000000000000000000A0
:10645C0005560B0039560B00D1540B00EB540B00B6
:10646C0041590B0015550B00B7570B0049550B0044
:10647C0049580B0089560B00E5570B00F5590B00DA
:10648C0085570B004B550B00FD540B008D550B0025
:10649C0069560B0025592D256D2D25645425483A38
:1064AC00254D3A2553257A0061736374696D650037
:1064BC000000000000000000C55A0B00315B0B000F
:1064CC00095B0B00D9520B00D95A0B00F55A0B0083
:1064DC00E75A0B00035B0B00C75A0B00CB5A0B009F
:1064EC0000000000000000006F5B0B00D75B0B008E
:1064FC00AD5B0B00D9520B009F5B0B00715B0B006B
:10650C00815B0B00D15B0B00915B0B00695B0B009B
:10651C000000000000000000CF5C0B00C55C0B000D
:10652C00BB5C0B00715C0B00AF5C0B00A35C0B0045
:10653C00B5510B00BD510B00975C0B008F5C0B0031
:10654C00855C0B007B5C0B00ED510B000053743130
:10655C00395F53705F6D616B655F73686172656401
:10656C005F74616700000000B4650B0059650B0097
:10657C0014660B0088650B0038660B004E31305FDB
:10658C005F637878616269763131375F5F636C6124
:10659C0073735F747970655F696E666F4500000098
:1065AC00000000007C650B008D5F0B00A15F0B00F1
:1065BC0035610B0035610B000B600B004D5F0B0060
:1065CC00F35F0B00B55F0B007F5F0B0014660B00D5
:1065DC00E4650B007C650B004E31305F5F637878AF
:1065EC00616269763132305F5F73695F636C6173CE
:1065FC00735F747970655F696E666F4500000000AB
:10660C0000000000D8650B0035600B0049600B00E2
:10661C0035610B0035610B000B600B004D5F0B00FF
:10662C0009610B0095600B005D600B00B4650B00FD
:10663C0040660B00537439747970655F696E666FD0
:10664C00005245454E54206D616C6C6F6320737520
:10665C0063636565646564002F746D702F6A656E85
:10666C006B696E732D4743432D31302D7069706506
:10667C006C696E652D34385F3230323031313234E2
:10668C005F313630363138303633392F7372632FF1
:10669C006E65776C69622F6E65776C69622F6C69B9
:1066AC0062632F7374646C69622F72616E642E6303
:1066BC0000000000D9420B00BD4F0B0035500B0001
:1066CC0065510B00C5520B006D530B00AD540B0004
:0866DC00B15A0B00D95C0B0060
:1066E400040000001400000003000000474E5500A1
:1066F4008B0198B24E0D738C457B9B69BA087289E5
:04670400D6125B1C32
:106708000100000000000000000000000000000080
:1067180000000000010000000A0000000000000066
:10672800010000000000000001000000000000005F
:1067380000000000000000000100000088130000B5
:10674800020000000200000000000000000000003D
:10675800010000000100000000000000000000002F
:106768000A00000003000000020000000000000012
:10677800000000000100000000000000010000000F
:106788000000000088130000000000000000000066
:10679800B4640B0090E50320000000000000000036
:1067A80000000000000000000000000000000000E1
:1067B80000000000000000000000000000000000D1
:1067C80000000000000000000000000000000000C1
:1067D80000000000000000000000000000000000B1
:1067E80000000000000000000000000000000000A1
:0C67F8000000000000000000ECE703209F
:046804000000000090
:10680E0000000102030405060708090A0B0C0D0E11
:10681E000F101112131415161718191A1B1C1D1E02
:04682E001F202800FF
:04683200785634124E
:04000003B000401CED
:00000001FF
